{
  "_format": "hh-sol-artifact-1",
  "contractName": "TradeSpherePair",
  "sourceName": "contracts/TradeSpherePair.sol",
  "abi": [
    {
      "inputs": [],
      "stateMutability": "nonpayable",
      "type": "constructor"
    },
    {
      "anonymous": false,
      "inputs": [
        {
          "indexed": true,
          "internalType": "address",
          "name": "sender",
          "type": "address"
        },
        {
          "indexed": false,
          "internalType": "uint256",
          "name": "amount0",
          "type": "uint256"
        },
        {
          "indexed": false,
          "internalType": "uint256",
          "name": "amount1",
          "type": "uint256"
        },
        {
          "indexed": true,
          "internalType": "address",
          "name": "to",
          "type": "address"
        }
      ],
      "name": "Burn",
      "type": "event"
    },
    {
      "anonymous": false,
      "inputs": [
        {
          "indexed": true,
          "internalType": "address",
          "name": "sender",
          "type": "address"
        },
        {
          "indexed": false,
          "internalType": "uint256",
          "name": "amount0",
          "type": "uint256"
        },
        {
          "indexed": false,
          "internalType": "uint256",
          "name": "amount1",
          "type": "uint256"
        }
      ],
      "name": "Mint",
      "type": "event"
    },
    {
      "inputs": [],
      "name": "factory",
      "outputs": [
        {
          "internalType": "address",
          "name": "",
          "type": "address"
        }
      ],
      "stateMutability": "view",
      "type": "function"
    },
    {
      "inputs": [],
      "name": "getReserves",
      "outputs": [
        {
          "internalType": "uint112",
          "name": "_reserve0",
          "type": "uint112"
        },
        {
          "internalType": "uint112",
          "name": "_reserve1",
          "type": "uint112"
        },
        {
          "internalType": "uint32",
          "name": "_blockTimestampLast",
          "type": "uint32"
        }
      ],
      "stateMutability": "view",
      "type": "function"
    },
    {
      "inputs": [
        {
          "internalType": "address",
          "name": "_token0",
          "type": "address"
        },
        {
          "internalType": "address",
          "name": "_token1",
          "type": "address"
        }
      ],
      "name": "initialize",
      "outputs": [],
      "stateMutability": "nonpayable",
      "type": "function"
    },
    {
      "inputs": [],
      "name": "token0",
      "outputs": [
        {
          "internalType": "address",
          "name": "",
          "type": "address"
        }
      ],
      "stateMutability": "view",
      "type": "function"
    },
    {
      "inputs": [],
      "name": "token1",
      "outputs": [
        {
          "internalType": "address",
          "name": "",
          "type": "address"
        }
      ],
      "stateMutability": "view",
      "type": "function"
    }
  ],
  "bytecode": "0x608060405234801561001057600080fd5b50600080546001600160a01b0319163317905561020b806100326000396000f3fe608060405234801561001057600080fd5b50600436106100575760003560e01c80630902f1ac1461005c5780630dfe168114610094578063485cc955146100b8578063c45a0155146100e8578063d21220a7146100f0575b600080fd5b6100646100f8565b604080516001600160701b03948516815292909316602083015263ffffffff168183015290519081900360600190f35b61009c610122565b604080516001600160a01b039092168252519081900360200190f35b6100e6600480360360408110156100ce57600080fd5b506001600160a01b0381358116916020013516610131565b005b61009c6101b7565b61009c6101c6565b6003546001600160701b0380821692600160701b830490911691600160e01b900463ffffffff1690565b6001546001600160a01b031681565b6000546001600160a01b03163314610189576040805162461bcd60e51b81526020600482015260166024820152752a3930b232a9b83432b9329d102327a92124a22222a760511b604482015290519081900360640190fd5b600180546001600160a01b039384166001600160a01b03199182161790915560028054929093169116179055565b6000546001600160a01b031681565b6002546001600160a01b03168156fea2646970667358221220355b0b8bfb7ceca2f2eb3b48e10d907adcef3eea5a8123a8c0dce88f42de679864736f6c63430006060033",
  "linkReferences": {},
  "deployedLinkReferences": {}
}