{
  "_format": "hh-sol-artifact-1",
  "contractName": "TradeSphereRouter",
  "sourceName": "contracts/TradeSphereRouter.sol",
  "abi": [
    {
      "inputs": [
        {
          "internalType": "address",
          "name": "_factory",
          "type": "address"
        },
        {
          "internalType": "address",
          "name": "_WETH",
          "type": "address"
        }
      ],
      "stateMutability": "nonpayable",
      "type": "constructor"
    },
    {
      "inputs": [],
      "name": "WETH",
      "outputs": [
        {
          "internalType": "address",
          "name": "",
          "type": "address"
        }
      ],
      "stateMutability": "view",
      "type": "function"
    },
    {
      "inputs": [
        {
          "internalType": "address",
          "name": "tokenA",
          "type": "address"
        },
        {
          "internalType": "address",
          "name": "tokenB",
          "type": "address"
        },
        {
          "internalType": "uint256",
          "name": "amountADesired",
          "type": "uint256"
        },
        {
          "internalType": "uint256",
          "name": "amountBDesired",
          "type": "uint256"
        },
        {
          "internalType": "uint256",
          "name": "amountAMin",
          "type": "uint256"
        },
        {
          "internalType": "uint256",
          "name": "amountBMin",
          "type": "uint256"
        },
        {
          "internalType": "address",
          "name": "to",
          "type": "address"
        },
        {
          "internalType": "uint256",
          "name": "deadline",
          "type": "uint256"
        }
      ],
      "name": "addLiquidity",
      "outputs": [
        {
          "internalType": "uint256",
          "name": "amountA",
          "type": "uint256"
        },
        {
          "internalType": "uint256",
          "name": "amountB",
          "type": "uint256"
        },
        {
          "internalType": "uint256",
          "name": "liquidity",
          "type": "uint256"
        }
      ],
      "stateMutability": "nonpayable",
      "type": "function"
    },
    {
      "inputs": [],
      "name": "factory",
      "outputs": [
        {
          "internalType": "address",
          "name": "",
          "type": "address"
        }
      ],
      "stateMutability": "view",
      "type": "function"
    },
    {
      "inputs": [
        {
          "internalType": "uint256",
          "name": "amountIn",
          "type": "uint256"
        },
        {
          "internalType": "address[]",
          "name": "path",
          "type": "address[]"
        }
      ],
      "name": "getAmountsOut",
      "outputs": [
        {
          "internalType": "uint256[]",
          "name": "amounts",
          "type": "uint256[]"
        }
      ],
      "stateMutability": "view",
      "type": "function"
    },
    {
      "inputs": [
        {
          "internalType": "uint256",
          "name": "amountIn",
          "type": "uint256"
        },
        {
          "internalType": "uint256",
          "name": "amountOutMin",
          "type": "uint256"
        },
        {
          "internalType": "address[]",
          "name": "path",
          "type": "address[]"
        },
        {
          "internalType": "address",
          "name": "to",
          "type": "address"
        },
        {
          "internalType": "uint256",
          "name": "deadline",
          "type": "uint256"
        }
      ],
      "name": "swapExactTokensForTokens",
      "outputs": [
        {
          "internalType": "uint256[]",
          "name": "amounts",
          "type": "uint256[]"
        }
      ],
      "stateMutability": "nonpayable",
      "type": "function"
    },
    {
      "stateMutability": "payable",
      "type": "receive"
    }
  ],
  "bytecode": "0x60c060405234801561001057600080fd5b506040516107393803806107398339818101604052604081101561003357600080fd5b5080516020909101516001600160601b0319606092831b8116608052911b1660a05260805160601c60a05160601c6106b261008760003980605e52806103eb52508061040f52806105cb52506106b26000f3fe60806040526004361061004e5760003560e01c806338ed17391461008c578063ad5c464814610174578063c45a0155146101a5578063d06ca61f146101ba578063e8e337001461027157610087565b3661008757336001600160a01b037f0000000000000000000000000000000000000000000000000000000000000000161461008557fe5b005b600080fd5b34801561009857600080fd5b50610124600480360360a08110156100af57600080fd5b8135916020810135918101906060810160408201356401000000008111156100d657600080fd5b8201836020820111156100e857600080fd5b8035906020019184602083028401116401000000008311171561010a57600080fd5b91935091506001600160a01b0381351690602001356102f1565b60408051602080825283518183015283519192839290830191858101910280838360005b83811015610160578181015183820152602001610148565b505050509050019250505060405180910390f35b34801561018057600080fd5b506101896103e9565b604080516001600160a01b039092168252519081900360200190f35b3480156101b157600080fd5b5061018961040d565b3480156101c657600080fd5b50610124600480360360408110156101dd57600080fd5b813591908101906040810160208201356401000000008111156101ff57600080fd5b82018360208201111561021157600080fd5b8035906020019184602083028401116401000000008311171561023357600080fd5b919080806020026020016040519081016040528093929190818152602001838360200280828437600092019190915250929550610431945050505050565b34801561027d57600080fd5b506102d3600480360361010081101561029557600080fd5b506001600160a01b038135811691602081013582169160408201359160608101359160808201359160a08101359160c0820135169060e0013561051b565b60408051938452602084019290925282820152519081900360600190f35b60608142811015610349576040805162461bcd60e51b815260206004820152601a60248201527f5472616465537068657265526f757465723a2045585049524544000000000000604482015290519081900360640190fd5b6103868887878080602002602001604051908101604052809392919081815260200183836020028082843760009201919091525061043192505050565b9150868260018451038151811061039957fe5b602002602001015110156103de5760405162461bcd60e51b815260040180806020018281038252602d815260200180610650602d913960400191505060405180910390fd5b509695505050505050565b7f000000000000000000000000000000000000000000000000000000000000000081565b7f000000000000000000000000000000000000000000000000000000000000000081565b606060028251101561048a576040805162461bcd60e51b815260206004820152601f60248201527f5472616465537068657265526f757465723a20494e56414c49445f5041544800604482015290519081900360640190fd5b815167ffffffffffffffff811180156104a257600080fd5b506040519080825280602002602001820160405280156104cc578160200160208202803683370190505b50905082816000815181106104dd57fe5b602090810291909101015260015b8251811015610514578382828151811061050157fe5b60209081029190910101526001016104eb565b5092915050565b60008060008342811015610576576040805162461bcd60e51b815260206004820152601a60248201527f5472616465537068657265526f757465723a2045585049524544000000000000604482015290519081900360640190fd5b6105848c8c8c8c8c8c61059a565b909d909c5060009b509950505050505050505050565b6040805163e6a4390560e01b81526001600160a01b03888116600483015287811660248301529151600092839283927f00000000000000000000000000000000000000000000000000000000000000009092169163e6a4390591604480820192602092909190829003018186803b15801561061457600080fd5b505afa158015610628573d6000803e3d6000fd5b505050506040513d602081101561063e57600080fd5b50505050939692955091935050505056fe5472616465537068657265526f757465723a20494e53554646494349454e545f4f55545055545f414d4f554e54a2646970667358221220cd655b08ffd2fff2f154bdc5e18ba6dbd57bcddcaaab93d7affcecc88a532afb64736f6c63430006060033",
  "linkReferences": {},
  "deployedLinkReferences": {}
}